{
  "transactions": [
    {
      "hash": "0xa8610bb8ee483d9d7d0cf71167ebc5c581b0fb75baeb49106a265c4829a15184",
      "transactionType": "CALL",
      "contractName": null,
      "contractAddress": "0xff39f62117656ba09318e2f86467e4af98526238",
      "function": "set(int192,uint64)",
      "arguments": [
        "3000000000000000000000",
        "1770202395000000000"
      ],
      "transaction": {
        "from": "0x8966cacc8e138ed0a03af3aa4aee7b79118c420e",
        "to": "0xff39f62117656ba09318e2f86467e4af98526238",
        "gas": "0x910e",
        "value": "0x0",
        "input": "0x6b847d860000000000000000000000000000000000000000000000a2a15d09519be00000000000000000000000000000000000000000000000000000189105b306854e00",
        "nonce": "0x3d",
        "chainId": "0x4cef52"
      },
      "additionalContracts": [],
      "isFixedGasLimit": false
    },
    {
      "hash": "0x85529001df9c04c7fcbf9091dc7ecc16ef242c7cf2b0803bd511f74d6236923f",
      "transactionType": "CREATE",
      "contractName": "PoolModifyLiquidityTest",
      "contractAddress": "0x6395457985a9b5b58840896b25f1c790e7318d7f",
      "function": null,
      "arguments": [
        "0xE95946D2BE744fCA83f421DF10615A4fCabD77Ff"
      ],
      "transaction": {
        "from": "0x8966cacc8e138ed0a03af3aa4aee7b79118c420e",
        "gas": "0x14863a",
        "value": "0x0",
        "input": "0x60a03461007e57601f61124c38819003918201601f19168301916001600160401b038311848410176100825780849260209460405283398101031261007e57516001600160a01b038116810361007e576080526040516111b590816100978239608051818181609501528181610713015281816108160152610d0a0152f35b5f80fd5b634e487b7160e01b5f52604160045260245ffdfe60806040526004361015610011575f80fd5b5f3560e01c80630a5b11e414610845578063481c6a75146108015780635a6bcfda146105d8576391dd734614610045575f80fd5b346105c15760203660031901126105c1576004356001600160401b0381116105c157366023820112156105c15780600401356001600160401b0381116105c157810160248101903682116105c1577f0000000000000000000000000000000000000000000000000000000000000000926001600160a01b03841690338290036105c1576020818403126105c1576024810135906001600160401b0382116105c15701906101a0828403126105c157604051916101008361090f565b61010c60248201610995565b835260a0601f1982860301126105c157604051936101298561093e565b61013560448301610995565b855261014360648301610995565b6020860152608482013562ffffff811681036105c157604086015261016a60a483016109a9565b606086015260c48201356001600160a01b03811681036105c15760809160249183880152602086019687528360e31991030101126105c157604051956101af87610959565b6101bb60e483016109a9565b87526101ca61010483016109a9565b602088015261012482013560408801526101448201356060880152604084019687526101648201356001600160401b0381116105c1576102c696602461021292850101610aa7565b9160608501928352604061023d6101a461022f6101848501610aed565b936080890194855201610aed565b9360a0870194855261026a60a08951208b51805160020b6060602083015160020b92015192309089610b8c565b5050956102985f8c6102da8c519151955187519e8f9788968795632d35e7ed60e11b87526004870190610b1e565b8051600290810b60a48701526020820151900b60c4860152604081015160e486015260600151610104850152565b610140610124840152610144830190610afa565b03925af19687156105cd575f97610595575b5061031260a08751208951805160020b6060602083015160020b92015192309087610b8c565b505086515186519192916103349130916001600160a01b039081169116610cfb565b8951602001518951919593506001600160801b0392506103629130916001600160a01b039182169116610cfb565b9891505016600f0b9060408b510151915f8382019384129112908015821691151617610581576001600160801b0316600f0b0361053c576040610423995101515f81125f146104f757505f821380156104ee575b6103bf90610b61565b5f821280156104e5575b6103d39015610b61565b5f82126104b5575b5f8512610480575b505f8113610455575b505f8313610427575b86866040519060208201526020815261040f604082610974565b604051918291602083526020830190610afa565b0390f35b9351602001519251905161044b94901515936001600160a01b03928316921661101a565b5f808080806103f5565b8551518551845161047a939015159290916001600160a01b039081169186911661101a565b5f6103ec565b86516020015186516104af926001600160a01b0392831692909116856104a589610b7c565b9251151593610dda565b5f6103e3565b86515186516104e0916001600160a01b0390811691166104d485610b7c565b90868551151593610dda565b6103db565b505f85126103c9565b505f85136103b6565b5f12156103d3575f82128015610533575b61051190610b61565b5f8213801561052a575b6105259015610b61565b6103d3565b505f851361051b565b505f8512610508565b60405162461bcd60e51b815260206004820152601a60248201527f6c6971756964697479206368616e676520696e636f72726563740000000000006044820152606490fd5b634e487b7160e01b5f52601160045260245ffd5b9096506040813d6040116105c5575b816105b160409383610974565b810103126105c15751955f6102ec565b5f80fd5b3d91506105a4565b6040513d5f823e3d90fd5b6101403660031901126105c1576105ee366109b7565b6105f736610a3e565b61012435916001600160401b0383116105c1576106ec5f9261062061070e953690600401610aa7565b6040519161062d8361090f565b3383526020830194855260408301908152606083019182526106cb60808401928784526106b660a0860193898552610684604051998a986020808b015260018060a01b0390511660408a0152516060890190610b1e565b518051600290810b6101008901526020820151900b610120880152604081015161014088015260600151610160870152565b516101a06101808601526101e0850190610afa565b915115156101a08401525115156101c083015203601f198101835282610974565b604051809381926348c8949160e01b8352602060048401526024830190610afa565b0381837f00000000000000000000000000000000000000000000000000000000000000006001600160a01b03165af19081156105cd575f91610788575b506020818051810103126105c15760200151478061076f575b602082604051908152f35b5f80808093335af1156107825781610764565b336110c9565b90503d805f833e6107998183610974565b8101906020818303126105c1578051906001600160401b0382116105c1570181601f820112156105c1578051906107cf82610a8c565b926107dd6040519485610974565b828452602083830101116105c157815f9260208093018386015e830101528161074b565b346105c1575f3660031901126105c1576040517f00000000000000000000000000000000000000000000000000000000000000006001600160a01b03168152602090f35b6101803660031901126105c15761085b366109b7565b61086436610a3e565b610124356001600160401b0381116105c157610884903690600401610aa7565b9161014435928315158094036105c15761016435928315158094036105c15761070e945f946106cb6106ec946106b6604051956108c08761090f565b3387526020870198895260408701908152606087019283526080870195865260a08701948552610684604051998a986020808b015260018060a01b0390511660408a0152516060890190610b1e565b60c081019081106001600160401b0382111761092a57604052565b634e487b7160e01b5f52604160045260245ffd5b60a081019081106001600160401b0382111761092a57604052565b608081019081106001600160401b0382111761092a57604052565b90601f801991011681019081106001600160401b0382111761092a57604052565b35906001600160a01b03821682036105c157565b35908160020b82036105c157565b60a09060031901126105c157604051906109d08261093e565b816004356001600160a01b03811681036105c15781526024356001600160a01b03811681036105c157602082015260443562ffffff811681036105c15760408201526064358060020b81036105c1576060820152608435906001600160a01b03821682036105c15760800152565b60809060a31901126105c15760405190610a5782610959565b8160a4358060020b81036105c157815260c4358060020b81036105c157602082015260e4356040820152606061010435910152565b6001600160401b03811161092a57601f01601f191660200190565b81601f820112156105c157803590610abe82610a8c565b92610acc6040519485610974565b828452602083830101116105c157815f926020809301838601378301015290565b359081151582036105c157565b805180835260209291819084018484015e5f828201840152601f01601f1916010190565b80516001600160a01b03908116835260208083015182169084015260408083015162ffffff169084015260608083015160020b9084015260809182015116910152565b15610b6857565b634e487b7160e01b5f52600160045260245ffd5b600160ff1b8114610581575f0390565b94939290926040519460268601526006850152600384015282525f603a600c8401209281604082015281602082015252604051602081019182526006604082015260408152610bdc606082610974565b5190209060068201809211610581575f916040519060208201928352604082015260408152610c0c606082610974565b519020604051631afeb18d60e11b815260048101919091526003602482015291829060449082906001600160a01b03165afa9081156105cd575f91610c61575b50602081015160408201516060909201519092565b90503d805f833e610c728183610974565b8101906020818303126105c1578051906001600160401b0382116105c157019080601f830112156105c1578151916001600160401b03831161092a578260051b9060405193610cc46020840186610974565b84526020808501928201019283116105c157602001905b828210610ceb575050505f610c4c565b8151815260209182019101610cdb565b9290610d079084611132565b927f00000000000000000000000000000000000000000000000000000000000000006001600160a01b031690610d3d8282611132565b9360018060a01b03165f5260018060a01b0316602052602060405f2060246040518094819363789add5560e11b835260048301525afa9081156105cd575f91610d84575090565b90506020813d602011610dab575b81610d9f60209383610974565b810103126105c1575190565b3d9150610d92565b908160209103126105c1575180151581036105c15790565b908160209103126105c1575190565b9291935f14610e47576001600160a01b0316803b156105c157604051637a94c56560e11b81526001600160a01b03948516600482015293909216602484015260448301525f908290818381606481015b03925af180156105cd57610e3b5750565b5f610e4591610974565b565b90916001600160a01b031680610eb45750604051630476982d60e21b81529250602091839160049183916001600160a01b03165af180156105cd57610e895750565b610eaa9060203d602011610ead575b610ea28183610974565b810190610dcb565b50565b503d610e98565b6001600160a01b0390911691823b156105c157604051632961046560e21b8152600481018390525f9490858160248183895af180156105cd57611005575b506001600160a01b031684308214610faa576020929160649160405195869485936323b872dd60e01b8552600485015288602485015260448401525af18015610f9f57916020918493610f72575b505b600460405180958193630476982d60e21b83525af1908115610f665750610e895750565b604051903d90823e3d90fd5b610f9190833d8511610f98575b610f898183610974565b810190610db3565b505f610f40565b503d610f7f565b6040513d85823e3d90fd5b9290506044602092604051948593849263a9059cbb60e01b845288600485015260248401525af18015610f9f57916020918493610fe8575b50610f42565b610ffe90833d8511610f9857610f898183610974565b505f610fe2565b6110129195505f90610974565b5f935f610ef2565b9291935f1461106e576001600160a01b0316803b156105c157604051630ab714fb60e11b81526001600160a01b03948516600482015293909216602484015260448301525f90829081838160648101610e2a565b9092906001600160a01b0316803b156105c157604051630b0d9c0960e01b81526001600160a01b03938416600482015291909216602482015260448101929092525f908290606490829084905af180156105cd57610e3b5750565b6040516390bfb86560e01b81526001600160a01b0390911660048201525f602482018190526080604483015260a03d601f01601f191690810160648401523d6084840152903d9060a484013e808201600460a482015260c4633d2cec6f60e21b91015260e40190fd5b6001600160a01b03168061114557503190565b6040516370a0823160e01b81526001600160a01b039092166004830152602090829060249082905afa9081156105cd575f91610d8457509056fea2646970667358221220c5aa75eb0954fe7f196ab8b073c384b29acb572349e82926d7a5e6d804159a4f64736f6c634300081e0033000000000000000000000000e95946d2be744fca83f421df10615a4fcabd77ff",
        "nonce": "0x3e",
        "chainId": "0x4cef52"
      },
      "additionalContracts": [],
      "isFixedGasLimit": false
    },
    {
      "hash": "0x8f345135df2d6db31e5176dca5465f1ea8416f5e4d254f5fa0c739f4e3102405",
      "transactionType": "CREATE",
      "contractName": "PoolSwapTest",
      "contractAddress": "0x5ed07738ca8398da3008c8320286cd1ddb8c798d",
      "function": null,
      "arguments": [
        "0xE95946D2BE744fCA83f421DF10615A4fCabD77Ff"
      ],
      "transaction": {
        "from": "0x8966cacc8e138ed0a03af3aa4aee7b79118c420e",
        "gas": "0x16adae",
        "value": "0x0",
        "input": "0x60a03461007e57601f61144238819003918201601f19168301916001600160401b038311848410176100825780849260209460405283398101031261007e57516001600160a01b038116810361007e576080526040516113ab90816100978239608051818181608d0152818161096e01528181610bb90152610f780152f35b5f80fd5b634e487b7160e01b5f52604160045260245ffdfe60806040526004361015610011575f80fd5b5f3560e01c80632229d0b41461099d578063481c6a7514610959576391dd73461461003a575f80fd5b346108b85760203660031901126108b85760043567ffffffffffffffff81116108b857366023820112156108b857806004013567ffffffffffffffff81116108b85781019060248201913683116108b8577f0000000000000000000000000000000000000000000000000000000000000000926001600160a01b03841692338490036108b8576020818403126108b85760248101359067ffffffffffffffff82116108b8570190610180828403126108b857604051916100f983610d02565b61010560248201610d8c565b83526040601f1982860301126108b8576040519061012282610d4e565b61012e60448201610da0565b825261013c60648201610da0565b60208301526020840191825260a060246083198388030101126108b8576040519461016686610d02565b61017260848301610d8c565b865261018060a48301610d8c565b602087015260c482013562ffffff811681036108b857604087015260e48201358060020b81036108b85760608701526101048201356001600160a01b03811681036108b85760808701526040850195865260609082900360ff1901126108b857604051926101ed84610d32565b6101fa6101248301610da0565b845261014482013560208501526101648201356001600160a01b03811681036108b8576040850152606085019384526101848201359167ffffffffffffffff83116108b85761024c9201602401610dc9565b6080840190815284515184519196916102739130916001600160a01b039081169116610f69565b8751602001518751919350610297925030916001600160a01b039081169116610f69565b92915050610914576108cf576102fc956020916102d55f8851610310885195516040519c8d9788968795633cf3645360e21b87526004870190610e33565b8051151560a4860152602081015160c4860152604001516001600160a01b031660e4850152565b610120610104840152610124830190610e0f565b03925af19485156108c4575f9561088c575b5083515183516103409130916001600160a01b039081169116610f69565b865160200151865191999350610365925030916001600160a01b039081169116610f69565b855180519196935091501561068657505f602082510151125f1461058a575160200151871261050f5761039f878760801d600f0b14610e85565b5f83126104b4576103fa965b5f8112610490575b5f8412610459575b5f811361042d575b505f83136103fe575b8686604051906020820152602081526103e6604082610d6a565b604051918291602083526020830190610e0f565b0390f35b935160200151925190515161042394901515936001600160a01b039283169216611279565b5f808080806103cc565b8551518551845151610453939015159290916001600160a01b0390811691869116611279565b5f6103c3565b855160200151855161048b916001600160a01b03908116911661047b87610f45565b9085602088510151151593611039565b6103bb565b85515185516104af916001600160a01b03908116911661047b84610f45565b6103b3565b60405162461bcd60e51b815260206004820152602d60248201527f64656c7461416674657231206973206e6f742067726561746572207468616e2060448201526c06f7220657175616c20746f203609c1b6064820152608490fd5b60405162461bcd60e51b815260206004820152604760248201527f64656c7461416674657230206973206e6f742067726561746572207468616e2060448201527f6f7220657175616c20746f20646174612e706172616d732e616d6f756e7453706064820152661958da599a595960ca1b608482015260a490fd5b5f881361062b576020906105a28589600f0b14610ee5565b51015183136105b4576103fa966103ab565b60a460405162461bcd60e51b815260206004820152604460248201527f64656c7461416674657231206973206e6f74206c657373207468616e206f722060448201527f657175616c20746f20646174612e706172616d732e616d6f756e745370656369606482015263199a595960e21b6084820152fd5b60405162461bcd60e51b815260206004820152602d60248201527f64656c7461416674657230206973206e6f74206c657373207468616e206f722060448201526c657175616c20746f207a65726f60981b6064820152608490fd5b602001515f13156107905751602001518312610715576106aa8387600f0b14610ee5565b5f87126106ba576103fa966103ab565b60405162461bcd60e51b815260206004820152602d60248201527f64656c7461416674657230206973206e6f742067726561746572207468616e2060448201526c06f7220657175616c20746f203609c1b6064820152608490fd5b60405162461bcd60e51b815260206004820152604760248201527f64656c7461416674657231206973206e6f742067726561746572207468616e2060448201527f6f7220657175616c20746f20646174612e706172616d732e616d6f756e7453706064820152661958da599a595960ca1b608482015260a490fd5b5f8413610834576020906107ab898960801d600f0b14610e85565b51015187136107bd576103fa966103ab565b60a460405162461bcd60e51b815260206004820152604460248201527f64656c7461416674657230206973206e6f74206c657373207468616e206f722060448201527f657175616c20746f20646174612e706172616d732e616d6f756e745370656369606482015263199a595960e21b6084820152fd5b60405162461bcd60e51b815260206004820152602a60248201527f64656c7461416674657231206973206e6f74206c657373207468616e206f72206044820152690657175616c20746f20360b41b6064820152608490fd5b9094506020813d6020116108bc575b816108a860209383610d6a565b810103126108b85751935f610322565b5f80fd5b3d915061089b565b6040513d5f823e3d90fd5b60405162461bcd60e51b815260206004820152601e60248201527f64656c74614265666f726531206973206e6f7420657175616c20746f203000006044820152606490fd5b60405162461bcd60e51b815260206004820152601e60248201527f64656c74614265666f726530206973206e6f7420657175616c20746f203000006044820152606490fd5b346108b8575f3660031901126108b8576040517f00000000000000000000000000000000000000000000000000000000000000006001600160a01b03168152602090f35b366003190161016081126108b85760a0136108b8576040516109be81610d02565b6004356001600160a01b03811681036108b85781526024356001600160a01b03811681036108b857602082015260443562ffffff811681036108b85760408201526064358060020b81036108b85760608201526084356001600160a01b03811681036108b857608082015260603660a31901126108b857604051610a4181610d32565b60a43580151581036108b857815260c435602082015260e4356001600160a01b03811681036108b85760408201526040610103193601126108b857604051610a8881610d4e565b6101043580151581036108b85781526101243580151581036108b8576020820152610144359167ffffffffffffffff83116108b857610bb493610b84610b9292610b6f610ada5f973690600401610dc9565b91610b4460405195610aeb87610d02565b338752602087019889526040870190815260608701928352608087019485526020604051998a9882808b015260018060a01b0390511660408a0152518051151560608a01520151151560808801525160a0870190610e33565b51805115156101408601526020810151610160860152604001516001600160a01b0316610180850152565b516101806101a08401526101c0830190610e0f565b03601f198101835282610d6a565b604051809381926348c8949160e01b8352602060048401526024830190610e0f565b0381837f00000000000000000000000000000000000000000000000000000000000000006001600160a01b03165af19081156108c4575f91610c88575b50602081519181808201938492010103126108b857514780610c19575b602082604051908152f35b5f80808093335af115610c2c5781610c0e565b601f19601f3d0116604051906390bfb86560e01b82523360048301525f6024830152608060448301528060a00160648301523d60848301523d5f60a484013e808201600460a482015260c4633d2cec6f60e21b91015260e40190fd5b90503d805f833e610c998183610d6a565b8101906020818303126108b85780519067ffffffffffffffff82116108b8570181601f820112156108b857805190610cd082610dad565b92610cde6040519485610d6a565b828452602083830101116108b857815f9260208093018386015e8301015281610bf1565b60a0810190811067ffffffffffffffff821117610d1e57604052565b634e487b7160e01b5f52604160045260245ffd5b6060810190811067ffffffffffffffff821117610d1e57604052565b6040810190811067ffffffffffffffff821117610d1e57604052565b90601f8019910116810190811067ffffffffffffffff821117610d1e57604052565b35906001600160a01b03821682036108b857565b359081151582036108b857565b67ffffffffffffffff8111610d1e57601f01601f191660200190565b81601f820112156108b857803590610de082610dad565b92610dee6040519485610d6a565b828452602083830101116108b857815f926020809301838601378301015290565b805180835260209291819084018484015e5f828201840152601f01601f1916010190565b80516001600160a01b03908116835260208083015182169084015260408083015162ffffff169084015260608083015160020b9084015260809182015116910152565b908160209103126108b8575190565b15610e8c57565b60405162461bcd60e51b815260206004820152602b60248201527f64656c74612e616d6f756e74302829206973206e6f7420657175616c20746f2060448201526a064656c74614166746572360ac1b6064820152608490fd5b15610eec57565b60405162461bcd60e51b815260206004820152602b60248201527f64656c74612e616d6f756e74312829206973206e6f7420657175616c20746f2060448201526a64656c746141667465723160a81b6064820152608490fd5b600160ff1b8114610f55575f0390565b634e487b7160e01b5f52601160045260245ffd5b9290610f759084611328565b927f00000000000000000000000000000000000000000000000000000000000000006001600160a01b031690610fab8282611328565b9360018060a01b03165f5260018060a01b0316602052602060405f2060246040518094819363789add5560e11b835260048301525afa9081156108c4575f91610ff2575090565b90506020813d602011611019575b8161100d60209383610d6a565b810103126108b8575190565b3d9150611000565b908160209103126108b8575180151581036108b85790565b9291935f146110a6576001600160a01b0316803b156108b857604051637a94c56560e11b81526001600160a01b03948516600482015293909216602484015260448301525f908290818381606481015b03925af180156108c45761109a5750565b5f6110a491610d6a565b565b90916001600160a01b0316806111135750604051630476982d60e21b81529250602091839160049183916001600160a01b03165af180156108c4576110e85750565b6111099060203d60201161110c575b6111018183610d6a565b810190610e76565b50565b503d6110f7565b6001600160a01b0390911691823b156108b857604051632961046560e21b8152600481018390525f9490858160248183895af180156108c457611264575b506001600160a01b031684308214611209576020929160649160405195869485936323b872dd60e01b8552600485015288602485015260448401525af180156111fe579160209184936111d1575b505b600460405180958193630476982d60e21b83525af19081156111c557506110e85750565b604051903d90823e3d90fd5b6111f090833d85116111f7575b6111e88183610d6a565b810190611021565b505f61119f565b503d6111de565b6040513d85823e3d90fd5b9290506044602092604051948593849263a9059cbb60e01b845288600485015260248401525af180156111fe57916020918493611247575b506111a1565b61125d90833d85116111f7576111e88183610d6a565b505f611241565b6112719195505f90610d6a565b5f935f611151565b9291935f146112cd576001600160a01b0316803b156108b857604051630ab714fb60e11b81526001600160a01b03948516600482015293909216602484015260448301525f90829081838160648101611089565b9092906001600160a01b0316803b156108b857604051630b0d9c0960e01b81526001600160a01b03938416600482015291909216602482015260448101929092525f908290606490829084905af180156108c45761109a5750565b6001600160a01b03168061133b57503190565b6040516370a0823160e01b81526001600160a01b039092166004830152602090829060249082905afa9081156108c4575f91610ff257509056fea2646970667358221220c8e61a20f1459a608dca54a5a8ea196d3760967b2c70b2edd16346873144ccb664736f6c634300081e0033000000000000000000000000e95946d2be744fca83f421df10615a4fcabd77ff",
        "nonce": "0x3f",
        "chainId": "0x4cef52"
      },
      "additionalContracts": [],
      "isFixedGasLimit": false
    },
    {
      "hash": "0x4ca2229a7abdc36bc0cb1311779b8f95d652c3b0316464308265fa0ac91cdf68",
      "transactionType": "CALL",
      "contractName": null,
      "contractAddress": "0x01bb3a79defc363d2316c8c395f2faf20b3697d5",
      "function": "mint(address,uint256)",
      "arguments": [
        "0x8966caCc8E138ed0a03aF3Aa4AEe7B79118C420E",
        "1000000000000000000000"
      ],
      "transaction": {
        "from": "0x8966cacc8e138ed0a03af3aa4aee7b79118c420e",
        "to": "0x01bb3a79defc363d2316c8c395f2faf20b3697d5",
        "gas": "0x16f9b",
        "value": "0x0",
        "input": "0x40c10f190000000000000000000000008966cacc8e138ed0a03af3aa4aee7b79118c420e00000000000000000000000000000000000000000000003635c9adc5dea00000",
        "nonce": "0x40",
        "chainId": "0x4cef52"
      },
      "additionalContracts": [],
      "isFixedGasLimit": false
    },
    {
      "hash": "0xc8675e6a3e8273ab207e25413c5e40b7dbea36132f324cc1ffb64bab331b5466",
      "transactionType": "CALL",
      "contractName": null,
      "contractAddress": "0xfc92d1864f6fa41059c793935a295d29b63d9e46",
      "function": "mint(address,uint256)",
      "arguments": [
        "0x8966caCc8E138ed0a03aF3Aa4AEe7B79118C420E",
        "1000000000000000000000"
      ],
      "transaction": {
        "from": "0x8966cacc8e138ed0a03af3aa4aee7b79118c420e",
        "to": "0xfc92d1864f6fa41059c793935a295d29b63d9e46",
        "gas": "0x16f9b",
        "value": "0x0",
        "input": "0x40c10f190000000000000000000000008966cacc8e138ed0a03af3aa4aee7b79118c420e00000000000000000000000000000000000000000000003635c9adc5dea00000",
        "nonce": "0x41",
        "chainId": "0x4cef52"
      },
      "additionalContracts": [],
      "isFixedGasLimit": false
    },
    {
      "hash": "0x0c6b440760acf4cbc4ddd7f908c820c0f211f2ee4b5e999e0b8261233203a88e",
      "transactionType": "CALL",
      "contractName": null,
      "contractAddress": "0x01bb3a79defc363d2316c8c395f2faf20b3697d5",
      "function": "approve(address,uint256)",
      "arguments": [
        "0x6395457985a9b5B58840896b25F1C790E7318d7F",
        "115792089237316195423570985008687907853269984665640564039457584007913129639935"
      ],
      "transaction": {
        "from": "0x8966cacc8e138ed0a03af3aa4aee7b79118c420e",
        "to": "0x01bb3a79defc363d2316c8c395f2faf20b3697d5",
        "gas": "0x10837",
        "value": "0x0",
        "input": "0x095ea7b30000000000000000000000006395457985a9b5b58840896b25f1c790e7318d7fffffffffffffffffffffffffffffffffffffffffffffffffffffffffffffffff",
        "nonce": "0x42",
        "chainId": "0x4cef52"
      },
      "additionalContracts": [],
      "isFixedGasLimit": false
    },
    {
      "hash": "0x70af6e1c8cc7674544d9121140d415df990a66e146aaf143eebe6fec717af3cd",
      "transactionType": "CALL",
      "contractName": null,
      "contractAddress": "0xfc92d1864f6fa41059c793935a295d29b63d9e46",
      "function": "approve(address,uint256)",
      "arguments": [
        "0x6395457985a9b5B58840896b25F1C790E7318d7F",
        "115792089237316195423570985008687907853269984665640564039457584007913129639935"
      ],
      "transaction": {
        "from": "0x8966cacc8e138ed0a03af3aa4aee7b79118c420e",
        "to": "0xfc92d1864f6fa41059c793935a295d29b63d9e46",
        "gas": "0x10837",
        "value": "0x0",
        "input": "0x095ea7b30000000000000000000000006395457985a9b5b58840896b25f1c790e7318d7fffffffffffffffffffffffffffffffffffffffffffffffffffffffffffffffff",
        "nonce": "0x43",
        "chainId": "0x4cef52"
      },
      "additionalContracts": [],
      "isFixedGasLimit": false
    },
    {
      "hash": "0xe94232e45da1154fbd0305187fb18548bb1b7f1d9ea8d885cf83848f763ff91b",
      "transactionType": "CALL",
      "contractName": null,
      "contractAddress": "0x01bb3a79defc363d2316c8c395f2faf20b3697d5",
      "function": "approve(address,uint256)",
      "arguments": [
        "0x5ed07738cA8398da3008c8320286CD1ddb8C798D",
        "115792089237316195423570985008687907853269984665640564039457584007913129639935"
      ],
      "transaction": {
        "from": "0x8966cacc8e138ed0a03af3aa4aee7b79118c420e",
        "to": "0x01bb3a79defc363d2316c8c395f2faf20b3697d5",
        "gas": "0x10837",
        "value": "0x0",
        "input": "0x095ea7b30000000000000000000000005ed07738ca8398da3008c8320286cd1ddb8c798dffffffffffffffffffffffffffffffffffffffffffffffffffffffffffffffff",
        "nonce": "0x44",
        "chainId": "0x4cef52"
      },
      "additionalContracts": [],
      "isFixedGasLimit": false
    },
    {
      "hash": "0x32c2a0b07fa04824e1f9d93d788dfe23ca69bf7e2fe97106e062e852b9ee923f",
      "transactionType": "CALL",
      "contractName": null,
      "contractAddress": "0xfc92d1864f6fa41059c793935a295d29b63d9e46",
      "function": "approve(address,uint256)",
      "arguments": [
        "0x5ed07738cA8398da3008c8320286CD1ddb8C798D",
        "115792089237316195423570985008687907853269984665640564039457584007913129639935"
      ],
      "transaction": {
        "from": "0x8966cacc8e138ed0a03af3aa4aee7b79118c420e",
        "to": "0xfc92d1864f6fa41059c793935a295d29b63d9e46",
        "gas": "0x10837",
        "value": "0x0",
        "input": "0x095ea7b30000000000000000000000005ed07738ca8398da3008c8320286cd1ddb8c798dffffffffffffffffffffffffffffffffffffffffffffffffffffffffffffffff",
        "nonce": "0x45",
        "chainId": "0x4cef52"
      },
      "additionalContracts": [],
      "isFixedGasLimit": false
    },
    {
      "hash": "0x532bd7faa63586881bf41cb4d2f38961b8f87590c45cb6dfbf7c0081ae76bca0",
      "transactionType": "CALL",
      "contractName": "PoolModifyLiquidityTest",
      "contractAddress": "0x6395457985a9b5b58840896b25f1c790e7318d7f",
      "function": "modifyLiquidity((address,address,uint24,int24,address),(int24,int24,int256,bytes32),bytes)",
      "arguments": [
        "(0x01BB3A79deFc363d2316c8c395F2FAF20B3697D5, 0xFC92d1864F6Fa41059c793935A295d29b63d9E46, 3000, 60, 0x93031545015f847FC85CD9f8232B742e5188c080)",
        "(-60, 60, 10000000000000000000, 0x0000000000000000000000000000000000000000000000000000000000000000)",
        "0x"
      ],
      "transaction": {
        "from": "0x8966cacc8e138ed0a03af3aa4aee7b79118c420e",
        "to": "0x6395457985a9b5b58840896b25f1c790e7318d7f",
        "gas": "0x63faf",
        "value": "0x0",
        "input": "0x5a6bcfda00000000000000000000000001bb3a79defc363d2316c8c395f2faf20b3697d5000000000000000000000000fc92d1864f6fa41059c793935a295d29b63d9e460000000000000000000000000000000000000000000000000000000000000bb8000000000000000000000000000000000000000000000000000000000000003c00000000000000000000000093031545015f847fc85cd9f8232b742e5188c080ffffffffffffffffffffffffffffffffffffffffffffffffffffffffffffffc4000000000000000000000000000000000000000000000000000000000000003c0000000000000000000000000000000000000000000000008ac7230489e80000000000000000000000000000000000000000000000000000000000000000000000000000000000000000000000000000000000000000000000000000000001400000000000000000000000000000000000000000000000000000000000000000",
        "nonce": "0x46",
        "chainId": "0x4cef52"
      },
      "additionalContracts": [],
      "isFixedGasLimit": false
    },
    {
      "hash": "0x6f1c23cb7eee20e612159954a86089aed8ce4fbf2f534b63d1fe73fda4601916",
      "transactionType": "CALL",
      "contractName": "PoolSwapTest",
      "contractAddress": "0x5ed07738ca8398da3008c8320286cd1ddb8c798d",
      "function": "swap((address,address,uint24,int24,address),(bool,int256,uint160),(bool,bool),bytes)",
      "arguments": [
        "(0x01BB3A79deFc363d2316c8c395F2FAF20B3697D5, 0xFC92d1864F6Fa41059c793935A295d29b63d9E46, 3000, 60, 0x93031545015f847FC85CD9f8232B742e5188c080)",
        "(true, -100000000000000000, 4295128740)",
        "(false, false)",
        "0x"
      ],
      "transaction": {
        "from": "0x8966cacc8e138ed0a03af3aa4aee7b79118c420e",
        "to": "0x5ed07738ca8398da3008c8320286cd1ddb8c798d",
        "gas": "0xb2361",
        "value": "0x0",
        "input": "0x2229d0b400000000000000000000000001bb3a79defc363d2316c8c395f2faf20b3697d5000000000000000000000000fc92d1864f6fa41059c793935a295d29b63d9e460000000000000000000000000000000000000000000000000000000000000bb8000000000000000000000000000000000000000000000000000000000000003c00000000000000000000000093031545015f847fc85cd9f8232b742e5188c0800000000000000000000000000000000000000000000000000000000000000001fffffffffffffffffffffffffffffffffffffffffffffffffe9cba87a276000000000000000000000000000000000000000000000000000000000001000276a40000000000000000000000000000000000000000000000000000000000000000000000000000000000000000000000000000000000000000000000000000000000000000000000000000000000000000000000000000000000000000000001600000000000000000000000000000000000000000000000000000000000000000",
        "nonce": "0x47",
        "chainId": "0x4cef52"
      },
      "additionalContracts": [],
      "isFixedGasLimit": false
    }
  ],
  "receipts": [
    {
      "status": "0x1",
      "cumulativeGasUsed": "0x26cadf",
      "logs": [],
      "logsBloom": "0x00000000000000000000000000000000000000000000000000000000000000000000000000000000000000000000000000000000000000000000000000000000000000000000000000000000000000000000000000000000000000000000000000000000000000000000000000000000000000000000000000000000000000000000000000000000000000000000000000000000000000000000000000000000000000000000000000000000000000000000000000000000000000000000000000000000000000000000000000000000000000000000000000000000000000000000000000000000000000000000000000000000000000000000000000000000",
      "type": "0x2",
      "transactionHash": "0xa8610bb8ee483d9d7d0cf71167ebc5c581b0fb75baeb49106a265c4829a15184",
      "transactionIndex": "0xf",
      "blockHash": "0x5f58895fcb7860502a03927c6887b149d8178fefc8cdc679b2b8f34755cf1de2",
      "blockNumber": "0x18156d0",
      "gasUsed": "0x6905",
      "effectiveGasPrice": "0x4a829b0f3",
      "from": "0x8966cacc8e138ed0a03af3aa4aee7b79118c420e",
      "to": "0xff39f62117656ba09318e2f86467e4af98526238",
      "contractAddress": null
    },
    {
      "status": "0x1",
      "cumulativeGasUsed": "0x369496",
      "logs": [],
      "logsBloom": "0x00000000000000000000000000000000000000000000000000000000000000000000000000000000000000000000000000000000000000000000000000000000000000000000000000000000000000000000000000000000000000000000000000000000000000000000000000000000000000000000000000000000000000000000000000000000000000000000000000000000000000000000000000000000000000000000000000000000000000000000000000000000000000000000000000000000000000000000000000000000000000000000000000000000000000000000000000000000000000000000000000000000000000000000000000000000",
      "type": "0x2",
      "transactionHash": "0x85529001df9c04c7fcbf9091dc7ecc16ef242c7cf2b0803bd511f74d6236923f",
      "transactionIndex": "0x10",
      "blockHash": "0x5f58895fcb7860502a03927c6887b149d8178fefc8cdc679b2b8f34755cf1de2",
      "blockNumber": "0x18156d0",
      "gasUsed": "0xfc9b7",
      "effectiveGasPrice": "0x4a829b0f3",
      "from": "0x8966cacc8e138ed0a03af3aa4aee7b79118c420e",
      "to": null,
      "contractAddress": "0x6395457985a9b5b58840896b25f1c790e7318d7f"
    },
    {
      "status": "0x1",
      "cumulativeGasUsed": "0x4a84c1",
      "logs": [],
      "logsBloom": "0x00000000000000000000000000000000000000000000000000000000000000000000000000000000000000000000000000000000000000000000000000000000000000000000000000000000000000000000000000000000000000000000000000000000000000000000000000000000000000000000000000000000000000000000000000000000000000000000000000000000000000000000000000000000000000000000000000000000000000000000000000000000000000000000000000000000000000000000000000000000000000000000000000000000000000000000000000000000000000000000000000000000000000000000000000000000",
      "type": "0x2",
      "transactionHash": "0x8f345135df2d6db31e5176dca5465f1ea8416f5e4d254f5fa0c739f4e3102405",
      "transactionIndex": "0x12",
      "blockHash": "0x5f58895fcb7860502a03927c6887b149d8178fefc8cdc679b2b8f34755cf1de2",
      "blockNumber": "0x18156d0",
      "gasUsed": "0x1171e9",
      "effectiveGasPrice": "0x4a829b0f3",
      "from": "0x8966cacc8e138ed0a03af3aa4aee7b79118c420e",
      "to": null,
      "contractAddress": "0x5ed07738ca8398da3008c8320286cd1ddb8c798d"
    },
    {
      "status": "0x1",
      "cumulativeGasUsed": "0x4b8ee5",
      "logs": [
        {
          "address": "0x01bb3a79defc363d2316c8c395f2faf20b3697d5",
          "topics": [
            "0xddf252ad1be2c89b69c2b068fc378daa952ba7f163c4a11628f55a4df523b3ef",
            "0x0000000000000000000000000000000000000000000000000000000000000000",
            "0x0000000000000000000000008966cacc8e138ed0a03af3aa4aee7b79118c420e"
          ],
          "data": "0x00000000000000000000000000000000000000000000003635c9adc5dea00000",
          "blockHash": "0x5f58895fcb7860502a03927c6887b149d8178fefc8cdc679b2b8f34755cf1de2",
          "blockNumber": "0x18156d0",
          "blockTimestamp": "0x69832535",
          "transactionHash": "0x4ca2229a7abdc36bc0cb1311779b8f95d652c3b0316464308265fa0ac91cdf68",
          "transactionIndex": "0x13",
          "logIndex": "0x4e",
          "removed": false
        }
      ],
      "logsBloom": "0x00000000000000000800000000000000000000000000000000000000000000000000002000000000000000000000000000000000000000000000000000000000000000000000000000000008000000000000000000000000000000000000000000000000020000000000000000000800000000000000000000000010000000000000000000000000000000000000000000000000000000000000000000000000000000000001010000000000000000000000000000000000000000000000000000000002000000000000000000000000000000000000000002400000000020000000000000000000000000000000000000000000000000000000000000000000",
      "type": "0x2",
      "transactionHash": "0x4ca2229a7abdc36bc0cb1311779b8f95d652c3b0316464308265fa0ac91cdf68",
      "transactionIndex": "0x13",
      "blockHash": "0x5f58895fcb7860502a03927c6887b149d8178fefc8cdc679b2b8f34755cf1de2",
      "blockNumber": "0x18156d0",
      "gasUsed": "0x10a24",
      "effectiveGasPrice": "0x4a829b0f3",
      "from": "0x8966cacc8e138ed0a03af3aa4aee7b79118c420e",
      "to": "0x01bb3a79defc363d2316c8c395f2faf20b3697d5",
      "contractAddress": null
    },
    {
      "status": "0x1",
      "cumulativeGasUsed": "0x4c9909",
      "logs": [
        {
          "address": "0xfc92d1864f6fa41059c793935a295d29b63d9e46",
          "topics": [
            "0xddf252ad1be2c89b69c2b068fc378daa952ba7f163c4a11628f55a4df523b3ef",
            "0x0000000000000000000000000000000000000000000000000000000000000000",
            "0x0000000000000000000000008966cacc8e138ed0a03af3aa4aee7b79118c420e"
          ],
          "data": "0x00000000000000000000000000000000000000000000003635c9adc5dea00000",
          "blockHash": "0x5f58895fcb7860502a03927c6887b149d8178fefc8cdc679b2b8f34755cf1de2",
          "blockNumber": "0x18156d0",
          "blockTimestamp": "0x69832535",
          "transactionHash": "0xc8675e6a3e8273ab207e25413c5e40b7dbea36132f324cc1ffb64bab331b5466",
          "transactionIndex": "0x14",
          "logIndex": "0x4f",
          "removed": false
        }
      ],
      "logsBloom": "0x00000000000000000800000000000000000000000000000000000000000000000000000000000000000000000000000000000000000000000000000000000000000000000000000000000008000000000000000000000000000000000000000000000000020000000000000000000800000000000000000000000010000000000000000000000000000000000000000000000000000000000000000000000000000000000001000000000000000000000000000000000000000000000000000000000002000000000000000100000000000000000000000002000000010020000000000000000000000000000000010000000000000000000000000000000000",
      "type": "0x2",
      "transactionHash": "0xc8675e6a3e8273ab207e25413c5e40b7dbea36132f324cc1ffb64bab331b5466",
      "transactionIndex": "0x14",
      "blockHash": "0x5f58895fcb7860502a03927c6887b149d8178fefc8cdc679b2b8f34755cf1de2",
      "blockNumber": "0x18156d0",
      "gasUsed": "0x10a24",
      "effectiveGasPrice": "0x4a829b0f3",
      "from": "0x8966cacc8e138ed0a03af3aa4aee7b79118c420e",
      "to": "0xfc92d1864f6fa41059c793935a295d29b63d9e46",
      "contractAddress": null
    },
    {
      "status": "0x1",
      "cumulativeGasUsed": "0x4d4db2",
      "logs": [
        {
          "address": "0x01bb3a79defc363d2316c8c395f2faf20b3697d5",
          "topics": [
            "0x8c5be1e5ebec7d5bd14f71427d1e84f3dd0314c0f7b2291e5b200ac8c7c3b925",
            "0x0000000000000000000000008966cacc8e138ed0a03af3aa4aee7b79118c420e",
            "0x0000000000000000000000006395457985a9b5b58840896b25f1c790e7318d7f"
          ],
          "data": "0xffffffffffffffffffffffffffffffffffffffffffffffffffffffffffffffff",
          "blockHash": "0x5f58895fcb7860502a03927c6887b149d8178fefc8cdc679b2b8f34755cf1de2",
          "blockNumber": "0x18156d0",
          "blockTimestamp": "0x69832535",
          "transactionHash": "0x0c6b440760acf4cbc4ddd7f908c820c0f211f2ee4b5e999e0b8261233203a88e",
          "transactionIndex": "0x15",
          "logIndex": "0x50",
          "removed": false
        }
      ],
      "logsBloom": "0x00000000000000000800000000000000000000000000000000000000000000000000002000000000000000000000000000000000000000000000000000200000000000000000000000000000000000000000000000000000000000000000000000000000000000000000000000000000000000000000000000000000000000000000000000000000000000000000000000000000000000000000000000800000020000000001010000000000000000000000000000000000000000000000040000000000000000000000000000000000000000000000000002400000400000000010000000000000000000000000000000000000000000000000000000000000",
      "type": "0x2",
      "transactionHash": "0x0c6b440760acf4cbc4ddd7f908c820c0f211f2ee4b5e999e0b8261233203a88e",
      "transactionIndex": "0x15",
      "blockHash": "0x5f58895fcb7860502a03927c6887b149d8178fefc8cdc679b2b8f34755cf1de2",
      "blockNumber": "0x18156d0",
      "gasUsed": "0xb4a9",
      "effectiveGasPrice": "0x4a829b0f3",
      "from": "0x8966cacc8e138ed0a03af3aa4aee7b79118c420e",
      "to": "0x01bb3a79defc363d2316c8c395f2faf20b3697d5",
      "contractAddress": null
    },
    {
      "status": "0x1",
      "cumulativeGasUsed": "0x4e025b",
      "logs": [
        {
          "address": "0xfc92d1864f6fa41059c793935a295d29b63d9e46",
          "topics": [
            "0x8c5be1e5ebec7d5bd14f71427d1e84f3dd0314c0f7b2291e5b200ac8c7c3b925",
            "0x0000000000000000000000008966cacc8e138ed0a03af3aa4aee7b79118c420e",
            "0x0000000000000000000000006395457985a9b5b58840896b25f1c790e7318d7f"
          ],
          "data": "0xffffffffffffffffffffffffffffffffffffffffffffffffffffffffffffffff",
          "blockHash": "0x5f58895fcb7860502a03927c6887b149d8178fefc8cdc679b2b8f34755cf1de2",
          "blockNumber": "0x18156d0",
          "blockTimestamp": "0x69832535",
          "transactionHash": "0x70af6e1c8cc7674544d9121140d415df990a66e146aaf143eebe6fec717af3cd",
          "transactionIndex": "0x16",
          "logIndex": "0x51",
          "removed": false
        }
      ],
      "logsBloom": "0x00000000000000000800000000000000000000000000000000000000000000000000000000000000000000000000000000000000000000000000000000200000000000000000000000000000000000000000000000000000000000000000000000000000000000000000000000000000000000000000000000000000000000000000000000000000000000000000000000000000000000000000000000800000020000000001000000000000000000000000000000000000000000000000040000000000000000000000000100000000000000000000000002000000410000000010000000000000000000000000010000000000000000000000000000000000",
      "type": "0x2",
      "transactionHash": "0x70af6e1c8cc7674544d9121140d415df990a66e146aaf143eebe6fec717af3cd",
      "transactionIndex": "0x16",
      "blockHash": "0x5f58895fcb7860502a03927c6887b149d8178fefc8cdc679b2b8f34755cf1de2",
      "blockNumber": "0x18156d0",
      "gasUsed": "0xb4a9",
      "effectiveGasPrice": "0x4a829b0f3",
      "from": "0x8966cacc8e138ed0a03af3aa4aee7b79118c420e",
      "to": "0xfc92d1864f6fa41059c793935a295d29b63d9e46",
      "contractAddress": null
    },
    {
      "status": "0x1",
      "cumulativeGasUsed": "0x4eb704",
      "logs": [
        {
          "address": "0x01bb3a79defc363d2316c8c395f2faf20b3697d5",
          "topics": [
            "0x8c5be1e5ebec7d5bd14f71427d1e84f3dd0314c0f7b2291e5b200ac8c7c3b925",
            "0x0000000000000000000000008966cacc8e138ed0a03af3aa4aee7b79118c420e",
            "0x0000000000000000000000005ed07738ca8398da3008c8320286cd1ddb8c798d"
          ],
          "data": "0xffffffffffffffffffffffffffffffffffffffffffffffffffffffffffffffff",
          "blockHash": "0x5f58895fcb7860502a03927c6887b149d8178fefc8cdc679b2b8f34755cf1de2",
          "blockNumber": "0x18156d0",
          "blockTimestamp": "0x69832535",
          "transactionHash": "0xe94232e45da1154fbd0305187fb18548bb1b7f1d9ea8d885cf83848f763ff91b",
          "transactionIndex": "0x17",
          "logIndex": "0x52",
          "removed": false
        }
      ],
      "logsBloom": "0x00000000000000000800000000004000000000000000000000000000000000000000002000000000000000000000000000000000000000000000000000200000000000000000000000000000000000000000000000000000000000000000000000000000000000000000000000000000000000000000000000000000000000000000000000000000000000000000000000000000000000000000000000000000020000000001030000000000000000000000000000000000000000000000000000000000000000000000001000000000000000000000000002400000000000000010000000000000000000000000000000000000000000000000000000000000",
      "type": "0x2",
      "transactionHash": "0xe94232e45da1154fbd0305187fb18548bb1b7f1d9ea8d885cf83848f763ff91b",
      "transactionIndex": "0x17",
      "blockHash": "0x5f58895fcb7860502a03927c6887b149d8178fefc8cdc679b2b8f34755cf1de2",
      "blockNumber": "0x18156d0",
      "gasUsed": "0xb4a9",
      "effectiveGasPrice": "0x4a829b0f3",
      "from": "0x8966cacc8e138ed0a03af3aa4aee7b79118c420e",
      "to": "0x01bb3a79defc363d2316c8c395f2faf20b3697d5",
      "contractAddress": null
    },
    {
      "status": "0x1",
      "cumulativeGasUsed": "0x4f6bad",
      "logs": [
        {
          "address": "0xfc92d1864f6fa41059c793935a295d29b63d9e46",
          "topics": [
            "0x8c5be1e5ebec7d5bd14f71427d1e84f3dd0314c0f7b2291e5b200ac8c7c3b925",
            "0x0000000000000000000000008966cacc8e138ed0a03af3aa4aee7b79118c420e",
            "0x0000000000000000000000005ed07738ca8398da3008c8320286cd1ddb8c798d"
          ],
          "data": "0xffffffffffffffffffffffffffffffffffffffffffffffffffffffffffffffff",
          "blockHash": "0x5f58895fcb7860502a03927c6887b149d8178fefc8cdc679b2b8f34755cf1de2",
          "blockNumber": "0x18156d0",
          "blockTimestamp": "0x69832535",
          "transactionHash": "0x32c2a0b07fa04824e1f9d93d788dfe23ca69bf7e2fe97106e062e852b9ee923f",
          "transactionIndex": "0x18",
          "logIndex": "0x53",
          "removed": false
        }
      ],
      "logsBloom": "0x00000000000000000800000000004000000000000000000000000000000000000000000000000000000000000000000000000000000000000000000000200000000000000000000000000000000000000000000000000000000000000000000000000000000000000000000000000000000000000000000000000000000000000000000000000000000000000000000000000000000000000000000000000000020000000001020000000000000000000000000000000000000000000000000000000000000000000000001100000000000000000000000002000000010000000010000000000000000000000000010000000000000000000000000000000000",
      "type": "0x2",
      "transactionHash": "0x32c2a0b07fa04824e1f9d93d788dfe23ca69bf7e2fe97106e062e852b9ee923f",
      "transactionIndex": "0x18",
      "blockHash": "0x5f58895fcb7860502a03927c6887b149d8178fefc8cdc679b2b8f34755cf1de2",
      "blockNumber": "0x18156d0",
      "gasUsed": "0xb4a9",
      "effectiveGasPrice": "0x4a829b0f3",
      "from": "0x8966cacc8e138ed0a03af3aa4aee7b79118c420e",
      "to": "0xfc92d1864f6fa41059c793935a295d29b63d9e46",
      "contractAddress": null
    },
    {
      "status": "0x1",
      "cumulativeGasUsed": "0x1dbf62",
      "logs": [
        {
          "address": "0xe95946d2be744fca83f421df10615a4fcabd77ff",
          "topics": [
            "0xf208f4912782fd25c7f114ca3723a2d5dd6f3bcc3ac8db5af63baa85f711d5ec",
            "0x266806024dcbc53355de3065f6360145a600e8eda3567fe6793a2f503c8f5799",
            "0x0000000000000000000000006395457985a9b5b58840896b25f1c790e7318d7f"
          ],
          "data": "0xffffffffffffffffffffffffffffffffffffffffffffffffffffffffffffffc4000000000000000000000000000000000000000000000000000000000000003c0000000000000000000000000000000000000000000000008ac7230489e800000000000000000000000000000000000000000000000000000000000000000000",
          "blockHash": "0xc56238951882f6f08b02d71c147400e683401732a1adee6363168c16de01dbc2",
          "blockNumber": "0x18156d1",
          "blockTimestamp": "0x69832536",
          "transactionHash": "0x532bd7faa63586881bf41cb4d2f38961b8f87590c45cb6dfbf7c0081ae76bca0",
          "transactionIndex": "0xc",
          "logIndex": "0x28",
          "removed": false
        },
        {
          "address": "0x01bb3a79defc363d2316c8c395f2faf20b3697d5",
          "topics": [
            "0xddf252ad1be2c89b69c2b068fc378daa952ba7f163c4a11628f55a4df523b3ef",
            "0x0000000000000000000000008966cacc8e138ed0a03af3aa4aee7b79118c420e",
            "0x000000000000000000000000e95946d2be744fca83f421df10615a4fcabd77ff"
          ],
          "data": "0x000000000000000000000000000000000000000000000000006a6a98393b90e2",
          "blockHash": "0xc56238951882f6f08b02d71c147400e683401732a1adee6363168c16de01dbc2",
          "blockNumber": "0x18156d1",
          "blockTimestamp": "0x69832536",
          "transactionHash": "0x532bd7faa63586881bf41cb4d2f38961b8f87590c45cb6dfbf7c0081ae76bca0",
          "transactionIndex": "0xc",
          "logIndex": "0x29",
          "removed": false
        },
        {
          "address": "0xfc92d1864f6fa41059c793935a295d29b63d9e46",
          "topics": [
            "0xddf252ad1be2c89b69c2b068fc378daa952ba7f163c4a11628f55a4df523b3ef",
            "0x0000000000000000000000008966cacc8e138ed0a03af3aa4aee7b79118c420e",
            "0x000000000000000000000000e95946d2be744fca83f421df10615a4fcabd77ff"
          ],
          "data": "0x000000000000000000000000000000000000000000000000006a6a98393b90e2",
          "blockHash": "0xc56238951882f6f08b02d71c147400e683401732a1adee6363168c16de01dbc2",
          "blockNumber": "0x18156d1",
          "blockTimestamp": "0x69832536",
          "transactionHash": "0x532bd7faa63586881bf41cb4d2f38961b8f87590c45cb6dfbf7c0081ae76bca0",
          "transactionIndex": "0xc",
          "logIndex": "0x2a",
          "removed": false
        }
      ],
      "logsBloom": "0x02000000000000000800000000000000000000000000000100000000000000000000002000000000000000000000000000200000100000000000000000000000000000000000000000000008000000000000000000000000000000000000000000000000000000000000000000000000000000000100000000000010000000000000000001000000000000000000000000000000000000000000000000800000000004000001010000004000000000000000000000000000000000000000040000000002000000000000000100000000000010000000000002400000410000000000000000000000800000000000010004000000000000000000000000000000",
      "type": "0x2",
      "transactionHash": "0x532bd7faa63586881bf41cb4d2f38961b8f87590c45cb6dfbf7c0081ae76bca0",
      "transactionIndex": "0xc",
      "blockHash": "0xc56238951882f6f08b02d71c147400e683401732a1adee6363168c16de01dbc2",
      "blockNumber": "0x18156d1",
      "gasUsed": "0x48625",
      "effectiveGasPrice": "0x4a829b0f3",
      "from": "0x8966cacc8e138ed0a03af3aa4aee7b79118c420e",
      "to": "0x6395457985a9b5b58840896b25f1c790e7318d7f",
      "contractAddress": null
    },
    {
      "status": "0x1",
      "cumulativeGasUsed": "0x255d0c",
      "logs": [
        {
          "address": "0xe95946d2be744fca83f421df10615a4fcabd77ff",
          "topics": [
            "0x40e9cecb9f5f1f1c5b9c97dec2917b7ee92e57ba5563708daca94dd84ad7112f",
            "0x266806024dcbc53355de3065f6360145a600e8eda3567fe6793a2f503c8f5799",
            "0x0000000000000000000000005ed07738ca8398da3008c8320286cd1ddb8c798d"
          ],
          "data": "0xffffffffffffffffffffffffffffffffffffffffffffffffff94f156c84cf188000000000000000000000000000000000000000000000000006a6a98393b90e100000000000000000000000000000000000000000000000000000001000276a40000000000000000000000000000000000000000000000000000000000000000fffffffffffffffffffffffffffffffffffffffffffffffffffffffffff276180000000000000000000000000000000000000000000000000000000000000bb8",
          "blockHash": "0xc56238951882f6f08b02d71c147400e683401732a1adee6363168c16de01dbc2",
          "blockNumber": "0x18156d1",
          "blockTimestamp": "0x69832536",
          "transactionHash": "0x6f1c23cb7eee20e612159954a86089aed8ce4fbf2f534b63d1fe73fda4601916",
          "transactionIndex": "0xd",
          "logIndex": "0x2b",
          "removed": false
        },
        {
          "address": "0x01bb3a79defc363d2316c8c395f2faf20b3697d5",
          "topics": [
            "0xddf252ad1be2c89b69c2b068fc378daa952ba7f163c4a11628f55a4df523b3ef",
            "0x0000000000000000000000008966cacc8e138ed0a03af3aa4aee7b79118c420e",
            "0x000000000000000000000000e95946d2be744fca83f421df10615a4fcabd77ff"
          ],
          "data": "0x000000000000000000000000000000000000000000000000006b0ea937b30e78",
          "blockHash": "0xc56238951882f6f08b02d71c147400e683401732a1adee6363168c16de01dbc2",
          "blockNumber": "0x18156d1",
          "blockTimestamp": "0x69832536",
          "transactionHash": "0x6f1c23cb7eee20e612159954a86089aed8ce4fbf2f534b63d1fe73fda4601916",
          "transactionIndex": "0xd",
          "logIndex": "0x2c",
          "removed": false
        },
        {
          "address": "0xfc92d1864f6fa41059c793935a295d29b63d9e46",
          "topics": [
            "0xddf252ad1be2c89b69c2b068fc378daa952ba7f163c4a11628f55a4df523b3ef",
            "0x000000000000000000000000e95946d2be744fca83f421df10615a4fcabd77ff",
            "0x0000000000000000000000008966cacc8e138ed0a03af3aa4aee7b79118c420e"
          ],
          "data": "0x000000000000000000000000000000000000000000000000006a6a98393b90e1",
          "blockHash": "0xc56238951882f6f08b02d71c147400e683401732a1adee6363168c16de01dbc2",
          "blockNumber": "0x18156d1",
          "blockTimestamp": "0x69832536",
          "transactionHash": "0x6f1c23cb7eee20e612159954a86089aed8ce4fbf2f534b63d1fe73fda4601916",
          "transactionIndex": "0xd",
          "logIndex": "0x2d",
          "removed": false
        }
      ],
      "logsBloom": "0x02000000000000000800000000004000000000000000000100000000000000000000002000000000000000000000000000200000140000000000000000000000000000000000000000000008000000000000000000000020000000000000000000000000000000000000000000000000000000000100000000000010000000000000000000000000000000000000000000000000000000000000000000000000000000000001030000004000000000000000000000000000000000000000000000000002000000000000001100000000000010000000000002400000010000000000000000000000804000000000010000000000000000000000000000000000",
      "type": "0x2",
      "transactionHash": "0x6f1c23cb7eee20e612159954a86089aed8ce4fbf2f534b63d1fe73fda4601916",
      "transactionIndex": "0xd",
      "blockHash": "0xc56238951882f6f08b02d71c147400e683401732a1adee6363168c16de01dbc2",
      "blockNumber": "0x18156d1",
      "gasUsed": "0x79daa",
      "effectiveGasPrice": "0x4a829b0f3",
      "from": "0x8966cacc8e138ed0a03af3aa4aee7b79118c420e",
      "to": "0x5ed07738ca8398da3008c8320286cd1ddb8c798d",
      "contractAddress": null
    }
  ],
  "libraries": [],
  "pending": [],
  "returns": {},
  "timestamp": 1770202423321,
  "chain": 5042002,
  "commit": "392f065"
}